{
  "contractName": "TicketSystem",
  "abi": [
    {
      "anonymous": false,
      "inputs": [
        {
          "indexed": false,
          "internalType": "address",
          "name": "receiver",
          "type": "address"
        },
        {
          "indexed": false,
          "internalType": "uint256",
          "name": "id",
          "type": "uint256"
        },
        {
          "indexed": false,
          "internalType": "string",
          "name": "eventName",
          "type": "string"
        }
      ],
      "name": "ticketIsBooked",
      "type": "event"
    },
    {
      "anonymous": false,
      "inputs": [
        {
          "indexed": false,
          "internalType": "address",
          "name": "receiver",
          "type": "address"
        },
        {
          "indexed": false,
          "internalType": "uint256",
          "name": "id",
          "type": "uint256"
        },
        {
          "indexed": false,
          "internalType": "string",
          "name": "eventName",
          "type": "string"
        }
      ],
      "name": "ticketIsMade",
      "type": "event"
    },
    {
      "constant": true,
      "inputs": [
        {
          "internalType": "address",
          "name": "",
          "type": "address"
        }
      ],
      "name": "lastTicketBooked",
      "outputs": [
        {
          "internalType": "uint256",
          "name": "id",
          "type": "uint256"
        },
        {
          "internalType": "string",
          "name": "eventName",
          "type": "string"
        },
        {
          "internalType": "string",
          "name": "eventPlace",
          "type": "string"
        },
        {
          "internalType": "bool",
          "name": "booked",
          "type": "bool"
        }
      ],
      "payable": false,
      "stateMutability": "view",
      "type": "function"
    },
    {
      "constant": true,
      "inputs": [
        {
          "internalType": "uint256",
          "name": "",
          "type": "uint256"
        }
      ],
      "name": "ticketArray",
      "outputs": [
        {
          "internalType": "uint256",
          "name": "id",
          "type": "uint256"
        },
        {
          "internalType": "string",
          "name": "eventName",
          "type": "string"
        },
        {
          "internalType": "string",
          "name": "eventPlace",
          "type": "string"
        },
        {
          "internalType": "bool",
          "name": "booked",
          "type": "bool"
        }
      ],
      "payable": false,
      "stateMutability": "view",
      "type": "function"
    },
    {
      "constant": false,
      "inputs": [
        {
          "internalType": "string",
          "name": "eventName",
          "type": "string"
        },
        {
          "internalType": "string",
          "name": "eventPlace",
          "type": "string"
        }
      ],
      "name": "makeTicket",
      "outputs": [],
      "payable": false,
      "stateMutability": "nonpayable",
      "type": "function"
    },
    {
      "constant": false,
      "inputs": [
        {
          "internalType": "uint256",
          "name": "id",
          "type": "uint256"
        }
      ],
      "name": "bookTicket",
      "outputs": [],
      "payable": false,
      "stateMutability": "nonpayable",
      "type": "function"
    },
    {
      "constant": true,
      "inputs": [],
      "name": "getLatestTicketBookedDetails",
      "outputs": [
        {
          "internalType": "uint256",
          "name": "id",
          "type": "uint256"
        },
        {
          "internalType": "string",
          "name": "eventName",
          "type": "string"
        },
        {
          "internalType": "string",
          "name": "eventPlace",
          "type": "string"
        }
      ],
      "payable": false,
      "stateMutability": "view",
      "type": "function"
    }
  ],
  "bytecode": "0x608060405234801561001057600080fd5b50610fb4806100206000396000f3fe608060405234801561001057600080fd5b50600436106100575760003560e01c80631c91a65e1461005c578063281bb76f1461008a578063a56adbb2146101dc578063bcf3dad914610317578063e181d0b61461043c575b600080fd5b6100886004803603602081101561007257600080fd5b8101908080359060200190929190505050610532565b005b6101da600480360360408110156100a057600080fd5b81019080803590602001906401000000008111156100bd57600080fd5b8201836020820111156100cf57600080fd5b803590602001918460018302840111640100000000831117156100f157600080fd5b91908080601f016020809104026020016040519081016040528093929190818152602001838380828437600081840152601f19601f8201169050808301925050505050505091929192908035906020019064010000000081111561015457600080fd5b82018360208201111561016657600080fd5b8035906020019184600183028401116401000000008311171561018857600080fd5b91908080601f016020809104026020016040519081016040528093929190818152602001838380828437600081840152601f19601f820116905080830192505050505050509192919290505050610791565b005b61021e600480360360208110156101f257600080fd5b81019080803573ffffffffffffffffffffffffffffffffffffffff16906020019092919050505061093e565b60405180858152602001806020018060200184151515158152602001838103835286818151815260200191508051906020019080838360005b83811015610272578082015181840152602081019050610257565b50505050905090810190601f16801561029f5780820380516001836020036101000a031916815260200191505b50838103825285818151815260200191508051906020019080838360005b838110156102d85780820151818401526020810190506102bd565b50505050905090810190601f1680156103055780820380516001836020036101000a031916815260200191505b50965050505050505060405180910390f35b6103436004803603602081101561032d57600080fd5b8101908080359060200190929190505050610aab565b60405180858152602001806020018060200184151515158152602001838103835286818151815260200191508051906020019080838360005b8381101561039757808201518184015260208101905061037c565b50505050905090810190601f1680156103c45780820380516001836020036101000a031916815260200191505b50838103825285818151815260200191508051906020019080838360005b838110156103fd5780820151818401526020810190506103e2565b50505050905090810190601f16801561042a5780820380516001836020036101000a031916815260200191505b50965050505050505060405180910390f35b610444610c25565b604051808481526020018060200180602001838103835285818151815260200191508051906020019080838360005b8381101561048e578082015181840152602081019050610473565b50505050905090810190601f1680156104bb5780820380516001836020036101000a031916815260200191505b50838103825284818151815260200191508051906020019080838360005b838110156104f45780820151818401526020810190506104d9565b50505050905090810190601f1680156105215780820380516001836020036101000a031916815260200191505b509550505050505060405180910390f35b600081101561058c576040517f08c379a0000000000000000000000000000000000000000000000000000000008152600401808060200182810382526021815260200180610f5f6021913960400191505060405180910390fd5b600080828154811061059a57fe5b9060005260206000209060040201905060018160030160006101000a81548160ff0219169083151502179055507fa7f45f9cee87b40c6f9025e4657ca7bcd41a77ff069815d3251ca5584a9c61f133826000015483600101604051808473ffffffffffffffffffffffffffffffffffffffff1673ffffffffffffffffffffffffffffffffffffffff168152602001838152602001806020018281038252838181546001816001161561010002031660029004815260200191508054600181600116156101000203166002900480156106b35780601f10610688576101008083540402835291602001916106b3565b820191906000526020600020905b81548152906001019060200180831161069657829003601f168201915b505094505050505060405180910390a180600160003373ffffffffffffffffffffffffffffffffffffffff1673ffffffffffffffffffffffffffffffffffffffff1681526020019081526020016000206000820154816000015560018201816001019080546001816001161561010002031660029004610734929190610e08565b506002820181600201908054600181600116156101000203166002900461075c929190610e08565b506003820160009054906101000a900460ff168160030160006101000a81548160ff0219169083151502179055509050505050565b610799610e8f565b6040518060800160405280600080549050815260200184815260200183815260200160001515815250905060008190806001815401808255809150509060018203906000526020600020906004020160009091929091909150600082015181600001556020820151816001019080519060200190610818929190610eb9565b506040820151816002019080519060200190610835929190610eb9565b5060608201518160030160006101000a81548160ff0219169083151502179055505050507f9177c6f9a0f25ac3c0b732d265222978e9b02e6f492ba1f87585e382f33750343382600001518360200151604051808473ffffffffffffffffffffffffffffffffffffffff1673ffffffffffffffffffffffffffffffffffffffff16815260200183815260200180602001828103825283818151815260200191508051906020019080838360005b838110156108fd5780820151818401526020810190506108e2565b50505050905090810190601f16801561092a5780820380516001836020036101000a031916815260200191505b5094505050505060405180910390a1505050565b6001602052806000526040600020600091509050806000015490806001018054600181600116156101000203166002900480601f0160208091040260200160405190810160405280929190818152602001828054600181600116156101000203166002900480156109f05780601f106109c5576101008083540402835291602001916109f0565b820191906000526020600020905b8154815290600101906020018083116109d357829003601f168201915b505050505090806002018054600181600116156101000203166002900480601f016020809104026020016040519081016040528092919081815260200182805460018160011615610100020316600290048015610a8e5780601f10610a6357610100808354040283529160200191610a8e565b820191906000526020600020905b815481529060010190602001808311610a7157829003601f168201915b5050505050908060030160009054906101000a900460ff16905084565b60008181548110610ab857fe5b9060005260206000209060040201600091509050806000015490806001018054600181600116156101000203166002900480601f016020809104026020016040519081016040528092919081815260200182805460018160011615610100020316600290048015610b6a5780601f10610b3f57610100808354040283529160200191610b6a565b820191906000526020600020905b815481529060010190602001808311610b4d57829003601f168201915b505050505090806002018054600181600116156101000203166002900480601f016020809104026020016040519081016040528092919081815260200182805460018160011615610100020316600290048015610c085780601f10610bdd57610100808354040283529160200191610c08565b820191906000526020600020905b815481529060010190602001808311610beb57829003601f168201915b5050505050908060030160009054906101000a900460ff16905084565b6000606080610c32610e8f565b600160003373ffffffffffffffffffffffffffffffffffffffff1673ffffffffffffffffffffffffffffffffffffffff16815260200190815260200160002060405180608001604052908160008201548152602001600182018054600181600116156101000203166002900480601f016020809104026020016040519081016040528092919081815260200182805460018160011615610100020316600290048015610d1f5780601f10610cf457610100808354040283529160200191610d1f565b820191906000526020600020905b815481529060010190602001808311610d0257829003601f168201915b50505050508152602001600282018054600181600116156101000203166002900480601f016020809104026020016040519081016040528092919081815260200182805460018160011615610100020316600290048015610dc15780601f10610d9657610100808354040283529160200191610dc1565b820191906000526020600020905b815481529060010190602001808311610da457829003601f168201915b505050505081526020016003820160009054906101000a900460ff161515151581525050905080600001518160200151826040015181915080905093509350935050909192565b828054600181600116156101000203166002900490600052602060002090601f016020900481019282601f10610e415780548555610e7e565b82800160010185558215610e7e57600052602060002091601f016020900482015b82811115610e7d578254825591600101919060010190610e62565b5b509050610e8b9190610f39565b5090565b60405180608001604052806000815260200160608152602001606081526020016000151581525090565b828054600181600116156101000203166002900490600052602060002090601f016020900481019282601f10610efa57805160ff1916838001178555610f28565b82800160010185558215610f28579182015b82811115610f27578251825591602001919060010190610f0c565b5b509050610f359190610f39565b5090565b610f5b91905b80821115610f57576000816000905550600101610f3f565b5090565b9056fe6964206d75737420626520657175616c206f72206c6172676572207468616e2030a265627a7a72315820dfe89521f7d85bb14421af965f6e23be363caccf116c4cbf2580e6666b6ca08b64736f6c634300050c0032",
  "source": "\r\npragma solidity >=0.5.11;\r\n\r\ncontract TicketSystem {\r\n\r\n      struct Ticket {\r\n        uint id;\r\n        string eventName;\r\n        string eventPlace;\r\n        bool booked;\r\n    }\r\n\r\n    Ticket[] public ticketArray;\r\n    mapping (address => Ticket) public lastTicketBooked;\r\n    event ticketIsBooked(address receiver, uint id, string eventName);\r\n    event ticketIsMade(address receiver, uint id, string eventName);\r\n\r\n    function makeTicket(string memory eventName, string memory eventPlace) public {\r\n        Ticket memory ticket = Ticket(ticketArray.length, eventName, eventPlace, false);\r\n        ticketArray.push(ticket);\r\n        emit ticketIsMade(msg.sender, ticket.id, ticket.eventName);\r\n    }\r\n\r\n    function bookTicket(uint id) public {\r\n        require(id >= 0, \"id must be equal or larger than 0\");\r\n        Ticket storage ticket = ticketArray[id];\r\n        ticket.booked = true;\r\n        emit ticketIsBooked(msg.sender, ticket.id, ticket.eventName);\r\n        lastTicketBooked[msg.sender] = ticket;\r\n    }\r\n\r\n    function getLatestTicketBookedDetails() public view returns (uint id, string memory eventName, string memory eventPlace)  {\r\n        Ticket memory ticket = lastTicketBooked[msg.sender];\r\n        return (ticket.id, ticket.eventName, ticket.eventPlace);\r\n    }\r\n\r\n}\r\n",
  "sourcePath": "C:/Users/Abdellah/Desktop/Laatste periode/BC1_Abdellah/Day_07_Mon_9_12_2019/contracts/TicketSystem.sol",
  "compiler": {
    "name": "solc",
    "version": "0.5.12+commit.7709ece9.Emscripten.clang"
  },
  "schemaVersion": "3.0.19",
  "updatedAt": "2019-12-11T12:51:49.555Z",
  "networkType": "ethereum",
  "devdoc": {
    "methods": {}
  },
  "userdoc": {
    "methods": {}
  }
}